{
  "contractName": "Store",
  "abi": [
    {
      "inputs": [
        {
          "internalType": "string",
          "name": "_storeName",
          "type": "string"
        },
        {
          "internalType": "address",
          "name": "_storeOwner",
          "type": "address"
        },
        {
          "internalType": "uint256",
          "name": "_feePercent",
          "type": "uint256"
        }
      ],
      "stateMutability": "nonpayable",
      "type": "constructor"
    },
    {
      "anonymous": false,
      "inputs": [
        {
          "indexed": true,
          "internalType": "address",
          "name": "buyer",
          "type": "address"
        },
        {
          "indexed": true,
          "internalType": "address",
          "name": "seller",
          "type": "address"
        },
        {
          "indexed": false,
          "internalType": "uint256",
          "name": "amount",
          "type": "uint256"
        },
        {
          "indexed": false,
          "internalType": "uint256",
          "name": "timestamp",
          "type": "uint256"
        }
      ],
      "name": "Sale",
      "type": "event"
    },
    {
      "anonymous": false,
      "inputs": [
        {
          "indexed": true,
          "internalType": "address",
          "name": "receiver",
          "type": "address"
        },
        {
          "indexed": false,
          "internalType": "uint256",
          "name": "amount",
          "type": "uint256"
        },
        {
          "indexed": false,
          "internalType": "uint256",
          "name": "timestamp",
          "type": "uint256"
        }
      ],
      "name": "Withdrawl",
      "type": "event"
    },
    {
      "inputs": [],
      "name": "feePercent",
      "outputs": [
        {
          "internalType": "uint256",
          "name": "",
          "type": "uint256"
        }
      ],
      "stateMutability": "view",
      "type": "function",
      "constant": true
    },
    {
      "inputs": [
        {
          "internalType": "address",
          "name": "",
          "type": "address"
        }
      ],
      "name": "salesOf",
      "outputs": [
        {
          "internalType": "uint256",
          "name": "",
          "type": "uint256"
        }
      ],
      "stateMutability": "view",
      "type": "function",
      "constant": true
    },
    {
      "inputs": [],
      "name": "storeAcc",
      "outputs": [
        {
          "internalType": "uint256",
          "name": "",
          "type": "uint256"
        }
      ],
      "stateMutability": "view",
      "type": "function",
      "constant": true
    },
    {
      "inputs": [],
      "name": "storeName",
      "outputs": [
        {
          "internalType": "string",
          "name": "",
          "type": "string"
        }
      ],
      "stateMutability": "view",
      "type": "function",
      "constant": true
    },
    {
      "inputs": [],
      "name": "storeOwner",
      "outputs": [
        {
          "internalType": "address",
          "name": "",
          "type": "address"
        }
      ],
      "stateMutability": "view",
      "type": "function",
      "constant": true
    },
    {
      "inputs": [],
      "name": "storeSales",
      "outputs": [
        {
          "internalType": "uint256",
          "name": "",
          "type": "uint256"
        }
      ],
      "stateMutability": "view",
      "type": "function",
      "constant": true
    },
    {
      "inputs": [
        {
          "internalType": "address",
          "name": "seller",
          "type": "address"
        },
        {
          "internalType": "string",
          "name": "purpose",
          "type": "string"
        }
      ],
      "name": "payNow",
      "outputs": [
        {
          "internalType": "bool",
          "name": "success",
          "type": "bool"
        }
      ],
      "stateMutability": "payable",
      "type": "function",
      "payable": true
    },
    {
      "inputs": [],
      "name": "getAllSales",
      "outputs": [
        {
          "components": [
            {
              "internalType": "address",
              "name": "buyer",
              "type": "address"
            },
            {
              "internalType": "address",
              "name": "seller",
              "type": "address"
            },
            {
              "internalType": "uint256",
              "name": "amount",
              "type": "uint256"
            },
            {
              "internalType": "string",
              "name": "purpose",
              "type": "string"
            },
            {
              "internalType": "uint256",
              "name": "timestamp",
              "type": "uint256"
            }
          ],
          "internalType": "struct Store.SalesStruct[]",
          "name": "",
          "type": "tuple[]"
        }
      ],
      "stateMutability": "view",
      "type": "function",
      "constant": true
    }
  ],
  "bytecode": "0x60c06040523480156200001157600080fd5b50604051620017ad380380620017ad833981810160405281019062000037919062000389565b82600190805190602001906200004f9291906200009c565b508173ffffffffffffffffffffffffffffffffffffffff1660808173ffffffffffffffffffffffffffffffffffffffff16815250508060a081815250506000808190555050505062000469565b828054620000aa9062000433565b90600052602060002090601f016020900481019282620000ce57600085556200011a565b82601f10620000e957805160ff19168380011785556200011a565b828001600101855582156200011a579182015b8281111562000119578251825591602001919060010190620000fc565b5b5090506200012991906200012d565b5090565b5b80821115620001485760008160009055506001016200012e565b5090565b6000604051905090565b600080fd5b600080fd5b600080fd5b600080fd5b6000601f19601f8301169050919050565b7f4e487b7100000000000000000000000000000000000000000000000000000000600052604160045260246000fd5b620001b5826200016a565b810181811067ffffffffffffffff82111715620001d757620001d66200017b565b5b80604052505050565b6000620001ec6200014c565b9050620001fa8282620001aa565b919050565b600067ffffffffffffffff8211156200021d576200021c6200017b565b5b62000228826200016a565b9050602081019050919050565b60005b838110156200025557808201518184015260208101905062000238565b8381111562000265576000848401525b50505050565b6000620002826200027c84620001ff565b620001e0565b905082815260208101848484011115620002a157620002a062000165565b5b620002ae84828562000235565b509392505050565b600082601f830112620002ce57620002cd62000160565b5b8151620002e08482602086016200026b565b91505092915050565b600073ffffffffffffffffffffffffffffffffffffffff82169050919050565b60006200031682620002e9565b9050919050565b620003288162000309565b81146200033457600080fd5b50565b60008151905062000348816200031d565b92915050565b6000819050919050565b62000363816200034e565b81146200036f57600080fd5b50565b600081519050620003838162000358565b92915050565b600080600060608486031215620003a557620003a462000156565b5b600084015167ffffffffffffffff811115620003c657620003c56200015b565b5b620003d486828701620002b6565b9350506020620003e78682870162000337565b9250506040620003fa8682870162000372565b9150509250925092565b7f4e487b7100000000000000000000000000000000000000000000000000000000600052602260045260246000fd5b600060028204905060018216806200044c57607f821691505b6020821081141562000463576200046262000404565b5b50919050565b60805160a051611309620004a460003960008181610436015261055301526000818161045a015281816104c2015261062901526113096000f3fe60806040526004361061007b5760003560e01c8063818fb3e01161004e578063818fb3e01461012c578063db53f54814610157578063dd88060914610187578063e9b44eeb146101c45761007b565b8063333969171461008057806340152d5c146100ab578063521936e6146100d65780637fd6f15c14610101575b600080fd5b34801561008c57600080fd5b506100956101ef565b6040516100a29190610c36565b60405180910390f35b3480156100b757600080fd5b506100c06103a0565b6040516100cd9190610c67565b60405180910390f35b3480156100e257600080fd5b506100eb6103a6565b6040516100f89190610ccc565b60405180910390f35b34801561010d57600080fd5b50610116610434565b6040516101239190610c67565b60405180910390f35b34801561013857600080fd5b50610141610458565b60405161014e9190610cfd565b60405180910390f35b610171600480360381019061016c9190610e8d565b61047c565b60405161017e9190610f04565b60405180910390f35b34801561019357600080fd5b506101ae60048036038101906101a99190610f1f565b61080c565b6040516101bb9190610c67565b60405180910390f35b3480156101d057600080fd5b506101d9610824565b6040516101e69190610c67565b60405180910390f35b60606004805480602002602001604051908101604052809291908181526020016000905b8282101561039757838290600052602060002090600502016040518060a00160405290816000820160009054906101000a900473ffffffffffffffffffffffffffffffffffffffff1673ffffffffffffffffffffffffffffffffffffffff1673ffffffffffffffffffffffffffffffffffffffff1681526020016001820160009054906101000a900473ffffffffffffffffffffffffffffffffffffffff1673ffffffffffffffffffffffffffffffffffffffff1673ffffffffffffffffffffffffffffffffffffffff168152602001600282015481526020016003820180546102fc90610f7b565b80601f016020809104026020016040519081016040528092919081815260200182805461032890610f7b565b80156103755780601f1061034a57610100808354040283529160200191610375565b820191906000526020600020905b81548152906001019060200180831161035857829003601f168201915b5050505050815260200160048201548152505081526020019060010190610213565b50505050905090565b60005481565b600180546103b390610f7b565b80601f01602080910402602001604051908101604052809291908181526020018280546103df90610f7b565b801561042c5780601f106104015761010080835404028352916020019161042c565b820191906000526020600020905b81548152906001019060200180831161040f57829003601f168201915b505050505081565b7f000000000000000000000000000000000000000000000000000000000000000081565b7f000000000000000000000000000000000000000000000000000000000000000081565b60008034116104c0576040517f08c379a00000000000000000000000000000000000000000000000000000000081526004016104b790610ff9565b60405180910390fd5b7f000000000000000000000000000000000000000000000000000000000000000073ffffffffffffffffffffffffffffffffffffffff163373ffffffffffffffffffffffffffffffffffffffff16141561054f576040517f08c379a000000000000000000000000000000000000000000000000000000000815260040161054690611065565b60405180910390fd5b60007f000000000000000000000000000000000000000000000000000000000000000060643461057f91906110e3565b6105899190611114565b905060008134610599919061116e565b9050346000808282546105ac91906111a2565b925050819055506001600260008282546105c691906111a2565b925050819055506001600360008773ffffffffffffffffffffffffffffffffffffffff1673ffffffffffffffffffffffffffffffffffffffff168152602001908152602001600020600082825461061d91906111a2565b9250508190555061064e7f00000000000000000000000000000000000000000000000000000000000000008361082a565b50610659858261082a565b5060046040518060a001604052803373ffffffffffffffffffffffffffffffffffffffff1681526020018773ffffffffffffffffffffffffffffffffffffffff16815260200183815260200186815260200142815250908060018154018082558091505060019003906000526020600020906005020160009091909190915060008201518160000160006101000a81548173ffffffffffffffffffffffffffffffffffffffff021916908373ffffffffffffffffffffffffffffffffffffffff16021790555060208201518160010160006101000a81548173ffffffffffffffffffffffffffffffffffffffff021916908373ffffffffffffffffffffffffffffffffffffffff16021790555060408201518160020155606082015181600301908051906020019061078c929190610968565b506080820151816004015550508473ffffffffffffffffffffffffffffffffffffffff163373ffffffffffffffffffffffffffffffffffffffff167f681ddc67ea8796d2489979f5fc2ea2eb0f2d44ff3f11f061a191928a1f3d9a0683426040516107f89291906111f8565b60405180910390a360019250505092915050565b60036020528060005260406000206000915090505481565b60025481565b6000816000541015610871576040517f08c379a00000000000000000000000000000000000000000000000000000000081526004016108689061126d565b60405180910390fd5b61087b83836108ed565b8160008082825461088c919061116e565b925050819055508273ffffffffffffffffffffffffffffffffffffffff167fecec28467198affe9b330468377fc67864aef81527f0a9a0c13330d9336e717d83426040516108db9291906111f8565b60405180910390a26001905092915050565b60008273ffffffffffffffffffffffffffffffffffffffff1682604051610913906112be565b60006040518083038185875af1925050503d8060008114610950576040519150601f19603f3d011682016040523d82523d6000602084013e610955565b606091505b505090508061096357600080fd5b505050565b82805461097490610f7b565b90600052602060002090601f01602090048101928261099657600085556109dd565b82601f106109af57805160ff19168380011785556109dd565b828001600101855582156109dd579182015b828111156109dc5782518255916020019190600101906109c1565b5b5090506109ea91906109ee565b5090565b5b80821115610a075760008160009055506001016109ef565b5090565b600081519050919050565b600082825260208201905092915050565b6000819050602082019050919050565b600073ffffffffffffffffffffffffffffffffffffffff82169050919050565b6000610a6282610a37565b9050919050565b610a7281610a57565b82525050565b6000819050919050565b610a8b81610a78565b82525050565b600081519050919050565b600082825260208201905092915050565b60005b83811015610acb578082015181840152602081019050610ab0565b83811115610ada576000848401525b50505050565b6000601f19601f8301169050919050565b6000610afc82610a91565b610b068185610a9c565b9350610b16818560208601610aad565b610b1f81610ae0565b840191505092915050565b600060a083016000830151610b426000860182610a69565b506020830151610b556020860182610a69565b506040830151610b686040860182610a82565b5060608301518482036060860152610b808282610af1565b9150506080830151610b956080860182610a82565b508091505092915050565b6000610bac8383610b2a565b905092915050565b6000602082019050919050565b6000610bcc82610a0b565b610bd68185610a16565b935083602082028501610be885610a27565b8060005b85811015610c245784840389528151610c058582610ba0565b9450610c1083610bb4565b925060208a01995050600181019050610bec565b50829750879550505050505092915050565b60006020820190508181036000830152610c508184610bc1565b905092915050565b610c6181610a78565b82525050565b6000602082019050610c7c6000830184610c58565b92915050565b600082825260208201905092915050565b6000610c9e82610a91565b610ca88185610c82565b9350610cb8818560208601610aad565b610cc181610ae0565b840191505092915050565b60006020820190508181036000830152610ce68184610c93565b905092915050565b610cf781610a57565b82525050565b6000602082019050610d126000830184610cee565b92915050565b6000604051905090565b600080fd5b600080fd5b610d3581610a57565b8114610d4057600080fd5b50565b600081359050610d5281610d2c565b92915050565b600080fd5b600080fd5b7f4e487b7100000000000000000000000000000000000000000000000000000000600052604160045260246000fd5b610d9a82610ae0565b810181811067ffffffffffffffff82111715610db957610db8610d62565b5b80604052505050565b6000610dcc610d18565b9050610dd88282610d91565b919050565b600067ffffffffffffffff821115610df857610df7610d62565b5b610e0182610ae0565b9050602081019050919050565b82818337600083830152505050565b6000610e30610e2b84610ddd565b610dc2565b905082815260208101848484011115610e4c57610e4b610d5d565b5b610e57848285610e0e565b509392505050565b600082601f830112610e7457610e73610d58565b5b8135610e84848260208601610e1d565b91505092915050565b60008060408385031215610ea457610ea3610d22565b5b6000610eb285828601610d43565b925050602083013567ffffffffffffffff811115610ed357610ed2610d27565b5b610edf85828601610e5f565b9150509250929050565b60008115159050919050565b610efe81610ee9565b82525050565b6000602082019050610f196000830184610ef5565b92915050565b600060208284031215610f3557610f34610d22565b5b6000610f4384828501610d43565b91505092915050565b7f4e487b7100000000000000000000000000000000000000000000000000000000600052602260045260246000fd5b60006002820490506001821680610f9357607f821691505b60208210811415610fa757610fa6610f4c565b5b50919050565b7f4574686572732063616e6e6f74206265207a65726f0000000000000000000000600082015250565b6000610fe3601583610c82565b9150610fee82610fad565b602082019050919050565b6000602082019050818103600083015261101281610fd6565b9050919050565b7f53616c65206e6f7420616c6c6f77656400000000000000000000000000000000600082015250565b600061104f601083610c82565b915061105a82611019565b602082019050919050565b6000602082019050818103600083015261107e81611042565b9050919050565b7f4e487b7100000000000000000000000000000000000000000000000000000000600052601260045260246000fd5b7f4e487b7100000000000000000000000000000000000000000000000000000000600052601160045260246000fd5b60006110ee82610a78565b91506110f983610a78565b92508261110957611108611085565b5b828204905092915050565b600061111f82610a78565b915061112a83610a78565b9250817fffffffffffffffffffffffffffffffffffffffffffffffffffffffffffffffff0483118215151615611163576111626110b4565b5b828202905092915050565b600061117982610a78565b915061118483610a78565b925082821015611197576111966110b4565b5b828203905092915050565b60006111ad82610a78565b91506111b883610a78565b9250827fffffffffffffffffffffffffffffffffffffffffffffffffffffffffffffffff038211156111ed576111ec6110b4565b5b828201905092915050565b600060408201905061120d6000830185610c58565b61121a6020830184610c58565b9392505050565b7f496e73756666696369656e742046756e64210000000000000000000000000000600082015250565b6000611257601283610c82565b915061126282611221565b602082019050919050565b600060208201905081810360008301526112868161124a565b9050919050565b600081905092915050565b50565b60006112a860008361128d565b91506112b382611298565b600082019050919050565b60006112c98261129b565b915081905091905056fea2646970667358221220f11e0bd995e2fc2043131aa2c2826b414be657547ce93f778b0936a243d12b4064736f6c634300080b0033",
  "immutableReferences": {
    "3": [
      {
        "length": 32,
        "start": 1114
      },
      {
        "length": 32,
        "start": 1218
      },
      {
        "length": 32,
        "start": 1577
      }
    ],
    "9": [
      {
        "length": 32,
        "start": 1078
      },
      {
        "length": 32,
        "start": 1363
      }
    ]
  },
  "source": "// SPDX-License-Identifier: MIT\r\n\r\npragma solidity ^0.8.4;\r\n\r\ncontract Store {\r\n  // Defining store variables\r\n  address public immutable storeOwner;\r\n  uint256 public storeAcc;\r\n  string public storeName;\r\n  uint256 public immutable feePercent;\r\n  uint256 public storeSales;\r\n\r\n  // Tracing users number of sales\r\n  mapping(address => uint256) public salesOf;\r\n\r\n  // Declaring events within each sale\r\n  event Sale (\r\n    address indexed buyer,\r\n    address indexed seller,\r\n    uint256 amount,\r\n    uint256 timestamp\r\n  );\r\n\r\n  event Withdrawl (\r\n    address indexed receiver,\r\n    uint256 amount,\r\n    uint256 timestamp\r\n  );\r\n\r\n  // Structuring the sales object\r\n  struct SalesStruct {\r\n    address buyer;\r\n    address seller;\r\n    uint256 amount;\r\n    string purpose;\r\n    uint256 timestamp;\r\n  }\r\n\r\n  SalesStruct[] sales;\r\n\r\n  // Initializing the store\r\n  constructor(\r\n    string memory _storeName,\r\n    address _storeOwner,\r\n    uint256 _feePercent\r\n  ) {\r\n    storeName = _storeName;\r\n    storeOwner = _storeOwner;\r\n    feePercent = _feePercent;\r\n    storeAcc = 0;\r\n  }\r\n\r\n  // Performing salles payment\r\n  function payNow(address seller, string memory purpose)\r\n    public\r\n    payable\r\n    returns (bool success)\r\n  {\r\n    // Validating payments\r\n    require(msg.value > 0, \"Ethers cannot be zero\");\r\n    require(msg.sender != storeOwner, \"Sale not allowed\");\r\n\r\n    // Calculating up cost and fee\r\n    uint256 fee = (msg.value / 100) * feePercent;\r\n    uint256 cost = msg.value - fee;\r\n\r\n    // Assigning sales and payment to store and product owner\r\n    storeAcc += msg.value;\r\n    storeSales += 1;\r\n    salesOf[seller] += 1;\r\n\r\n    // Cashing out to sales party\r\n    withdrawMoneyTo(storeOwner, fee);\r\n    withdrawMoneyTo(seller, cost);\r\n\r\n    // Recording sales in smart contract\r\n    sales.push(\r\n      SalesStruct(msg.sender, seller, cost, purpose, block.timestamp)\r\n    );\r\n\r\n    // Captures sales data on event\r\n    emit Sale(msg.sender, seller, cost, block.timestamp);\r\n    return true;\r\n  }\r\n\r\n  // Sends ethers to a specified address\r\n  function _payTo(address _to, uint256 _amount) internal {\r\n    (bool success1, ) = payable(_to).call{value: _amount}(\"\");\r\n    require(success1);\r\n  }\r\n\r\n  // Performs ethers transfer\r\n  function withdrawMoneyTo(address receiver, uint256 amount)\r\n    internal\r\n    returns (bool success)\r\n  {\r\n    require(storeAcc >= amount, \"Insufficient Fund!\");\r\n\r\n    _payTo(receiver, amount);\r\n    storeAcc -= amount;\r\n\r\n    // Captures transfer data on event\r\n    emit Withdrawl(receiver, amount, block.timestamp);\r\n    return true;\r\n  }\r\n\r\n  // Retrieves all processed sales from smart contract\r\n  function getAllSales() public view returns (SalesStruct[] memory) {\r\n    return sales;\r\n  }\r\n}",
  "sourcePath": "D:\\Projects\\eCommerce-dApp\\contracts\\Store.sol",
  "compiler": {
    "name": "solc",
    "version": "0.8.11+commit.d7f03943.Emscripten.clang"
  },
  "schemaVersion": "3.4.16",
  "updatedAt": "2024-08-24T17:57:14.208Z",
  "networkType": "ethereum",
  "devdoc": {
    "kind": "dev",
    "methods": {},
    "version": 1
  },
  "userdoc": {
    "kind": "user",
    "methods": {},
    "version": 1
  }
}